{
  "contractName": "healthcare",
  "abi": [
    {
      "constant": true,
      "inputs": [],
      "name": "blockCount",
      "outputs": [
        {
          "name": "",
          "type": "uint256"
        }
      ],
      "payable": false,
      "stateMutability": "view",
      "type": "function",
      "signature": "0x07225b4d"
    },
    {
      "constant": true,
      "inputs": [
        {
          "name": "",
          "type": "uint256"
        }
      ],
      "name": "record",
      "outputs": [
        {
          "name": "patient_id",
          "type": "string"
        },
        {
          "name": "patient_name",
          "type": "string"
        },
        {
          "name": "patient_age",
          "type": "uint256"
        },
        {
          "name": "patient_aadhar_number",
          "type": "uint256"
        },
        {
          "name": "patient_symptoms",
          "type": "string"
        },
        {
          "name": "patient_precription",
          "type": "string"
        },
        {
          "name": "uprn",
          "type": "uint256"
        },
        {
          "name": "doctor_name",
          "type": "string"
        },
        {
          "name": "designation",
          "type": "uint256"
        }
      ],
      "payable": false,
      "stateMutability": "view",
      "type": "function",
      "signature": "0x2c16cd8a"
    },
    {
      "inputs": [],
      "payable": false,
      "stateMutability": "nonpayable",
      "type": "constructor",
      "signature": "constructor"
    },
    {
      "anonymous": false,
      "inputs": [
        {
          "indexed": false,
          "name": "_patient_id",
          "type": "string"
        },
        {
          "indexed": false,
          "name": "_patient_name",
          "type": "string"
        },
        {
          "indexed": false,
          "name": "_patient_age",
          "type": "uint256"
        },
        {
          "indexed": false,
          "name": "_patient_aadhar_number",
          "type": "uint256"
        },
        {
          "indexed": false,
          "name": "_patient_symptoms",
          "type": "string"
        },
        {
          "indexed": false,
          "name": "_patient_precription",
          "type": "string"
        },
        {
          "indexed": false,
          "name": "_uprn",
          "type": "uint256"
        },
        {
          "indexed": false,
          "name": "_doctor_name",
          "type": "string"
        },
        {
          "indexed": false,
          "name": "_designation",
          "type": "uint256"
        }
      ],
      "name": "newPatientBlockCreated",
      "type": "event",
      "signature": "0x717f89340d9c84387b2467553b214a71241f261d8377150a91e96e8a777d98c5"
    },
    {
      "anonymous": false,
      "inputs": [
        {
          "indexed": false,
          "name": "_patient_id",
          "type": "string"
        }
      ],
      "name": "getPatientDetailByDoctorAgentEvent",
      "type": "event",
      "signature": "0xde39de1edb7b780ff24600a7e2f662af5e893354b07835c0628f956f9ef9a987"
    },
    {
      "constant": false,
      "inputs": [
        {
          "name": "_patient_id",
          "type": "string"
        },
        {
          "name": "_patient_name",
          "type": "string"
        },
        {
          "name": "_patient_age",
          "type": "uint256"
        },
        {
          "name": "_patient_aadhar_number",
          "type": "uint256"
        },
        {
          "name": "_patient_symptoms",
          "type": "string"
        },
        {
          "name": "_patient_precription",
          "type": "string"
        },
        {
          "name": "_uprn",
          "type": "uint256"
        },
        {
          "name": "_doctor_name",
          "type": "string"
        },
        {
          "name": "_designation",
          "type": "uint256"
        }
      ],
      "name": "addPatientBlock",
      "outputs": [],
      "payable": false,
      "stateMutability": "nonpayable",
      "type": "function",
      "signature": "0x482be6a3"
    },
    {
      "constant": true,
      "inputs": [
        {
          "name": "_patient_id",
          "type": "string"
        }
      ],
      "name": "getPatientDetailByDoctorAgent",
      "outputs": [
        {
          "name": "",
          "type": "string"
        },
        {
          "name": "",
          "type": "uint256"
        },
        {
          "name": "",
          "type": "uint256"
        },
        {
          "name": "",
          "type": "string"
        },
        {
          "name": "",
          "type": "string"
        },
        {
          "name": "",
          "type": "uint256"
        },
        {
          "name": "",
          "type": "string"
        },
        {
          "name": "",
          "type": "uint256"
        }
      ],
      "payable": false,
      "stateMutability": "view",
      "type": "function",
      "signature": "0xebe4f48f"
    }
  ],
  "bytecode": "0x6080604052600080553480156200001557600080fd5b5060408051808201825260068082527f6b68753132330000000000000000000000000000000000000000000000000000602080840191909152835180850185529182527f6b687573686900000000000000000000000000000000000000000000000000008282015283518085018552600581527f6665766572000000000000000000000000000000000000000000000000000000818301528451808601865260158082527f43726f63696e20436f6c64202620466c75204d61780000000000000000000000828501528651808801909752600d87527f44722e416a6179205061746e6900000000000000000000000000000000000000938701939093526200013695641cbe991a839291906201e24090600064010000000062000271810204565b6200026b6040805190810160405280600681526020017f69736832333100000000000000000000000000000000000000000000000000008152506040805190810160405280600581526020017f497368616e000000000000000000000000000000000000000000000000000000815250601564e5f4c8f3746040805190810160405280600d81526020017f65796573207761746572696e67000000000000000000000000000000000000008152506040805190810160405280601481526020017f4f70687468616c6d6963206579652064726f70730000000000000000000000008152506209fbf16040805190810160405280600981526020017f44722e536861726d610000000000000000000000000000000000000000000000815250600162000271640100000000026401000000009004565b620006a6565b801515620005f65760008054600190810180835560408051610120810182528d815260208082018e90528183018d9052606082018c9052608082018b905260a082018a905260c0820189905260e0820188905261010082018790529285529282529092208151805192939192620002ec928492019062000601565b50602082810151805162000307926001850192019062000601565b506040820151600282015560608201516003820155608082015180516200033991600484019160209091019062000601565b5060a082015180516200035791600584019160209091019062000601565b5060c0820151600682015560e082015180516200037f91600784019160209091019062000601565b5061010082015181600801559050507f717f89340d9c84387b2467553b214a71241f261d8377150a91e96e8a777d98c58989898989898989896040518080602001806020018a815260200189815260200180602001806020018881526020018060200187815260200186810386528f818151815260200191508051906020019080838360005b838110156200041f57818101518382015260200162000405565b50505050905090810190601f1680156200044d5780820380516001836020036101000a031916815260200191505b5086810385528e818151815260200191508051906020019080838360005b83811015620004855781810151838201526020016200046b565b50505050905090810190601f168015620004b35780820380516001836020036101000a031916815260200191505b5086810384528b5181528b516020918201918d019080838360005b83811015620004e8578181015183820152602001620004ce565b50505050905090810190601f168015620005165780820380516001836020036101000a031916815260200191505b5086810383528a5181528a516020918201918c019080838360005b838110156200054b57818101518382015260200162000531565b50505050905090810190601f168015620005795780820380516001836020036101000a031916815260200191505b5086810382528851815288516020918201918a019080838360005b83811015620005ae57818101518382015260200162000594565b50505050905090810190601f168015620005dc5780820380516001836020036101000a031916815260200191505b509e50505050505050505050505050505060405180910390a15b505050505050505050565b828054600181600116156101000203166002900490600052602060002090601f016020900481019282601f106200064457805160ff191683800117855562000674565b8280016001018555821562000674579182015b828111156200067457825182559160200191906001019062000657565b506200068292915062000686565b5090565b620006a391905b808211156200068257600081556001016200068d565b90565b61134f80620006b66000396000f3fe6080604052600436106100615763ffffffff7c010000000000000000000000000000000000000000000000000000000060003504166307225b4d81146100665780632c16cd8a1461008d578063482be6a3146102e6578063ebe4f48f146105ce575b600080fd5b34801561007257600080fd5b5061007b610847565b60408051918252519081900360200190f35b34801561009957600080fd5b506100b7600480360360208110156100b057600080fd5b503561084d565b6040518080602001806020018a815260200189815260200180602001806020018881526020018060200187815260200186810386528f818151815260200191508051906020019080838360005b8381101561011c578181015183820152602001610104565b50505050905090810190601f1680156101495780820380516001836020036101000a031916815260200191505b5086810385528e818151815260200191508051906020019080838360005b8381101561017f578181015183820152602001610167565b50505050905090810190601f1680156101ac5780820380516001836020036101000a031916815260200191505b5086810384528b5181528b516020918201918d019080838360005b838110156101df5781810151838201526020016101c7565b50505050905090810190601f16801561020c5780820380516001836020036101000a031916815260200191505b5086810383528a5181528a516020918201918c019080838360005b8381101561023f578181015183820152602001610227565b50505050905090810190601f16801561026c5780820380516001836020036101000a031916815260200191505b5086810382528851815288516020918201918a019080838360005b8381101561029f578181015183820152602001610287565b50505050905090810190601f1680156102cc5780820380516001836020036101000a031916815260200191505b509e50505050505050505050505050505060405180910390f35b3480156102f257600080fd5b506105cc600480360361012081101561030a57600080fd5b81019060208101813564010000000081111561032557600080fd5b82018360208201111561033757600080fd5b8035906020019184600183028401116401000000008311171561035957600080fd5b91908080601f01602080910402602001604051908101604052809392919081815260200183838082843760009201919091525092959493602081019350359150506401000000008111156103ac57600080fd5b8201836020820111156103be57600080fd5b803590602001918460018302840111640100000000831117156103e057600080fd5b91908080601f016020809104026020016040519081016040528093929190818152602001838380828437600092019190915250929584359560208601359591945092506060810191506040013564010000000081111561043f57600080fd5b82018360208201111561045157600080fd5b8035906020019184600183028401116401000000008311171561047357600080fd5b91908080601f01602080910402602001604051908101604052809392919081815260200183838082843760009201919091525092959493602081019350359150506401000000008111156104c657600080fd5b8201836020820111156104d857600080fd5b803590602001918460018302840111640100000000831117156104fa57600080fd5b91908080601f0160208091040260200160405190810160405280939291908181526020018383808284376000920191909152509295843595909490935060408101925060200135905064010000000081111561055557600080fd5b82018360208201111561056757600080fd5b8035906020019184600183028401116401000000008311171561058957600080fd5b91908080601f0160208091040260200160405190810160405280939291908181526020018383808284376000920191909152509295505091359250610b5e915050565b005b3480156105da57600080fd5b50610681600480360360208110156105f157600080fd5b81019060208101813564010000000081111561060c57600080fd5b82018360208201111561061e57600080fd5b8035906020019184600183028401116401000000008311171561064057600080fd5b91908080601f016020809104026020016040519081016040528093929190818152602001838380828437600092019190915250929550610ed4945050505050565b604051808060200189815260200188815260200180602001806020018781526020018060200186815260200185810385528d818151815260200191508051906020019080838360005b838110156106e25781810151838201526020016106ca565b50505050905090810190601f16801561070f5780820380516001836020036101000a031916815260200191505b5085810384528a5181528a516020918201918c019080838360005b8381101561074257818101518382015260200161072a565b50505050905090810190601f16801561076f5780820380516001836020036101000a031916815260200191505b5085810383528951815289516020918201918b019080838360005b838110156107a257818101518382015260200161078a565b50505050905090810190601f1680156107cf5780820380516001836020036101000a031916815260200191505b50858103825287518152875160209182019189019080838360005b838110156108025781810151838201526020016107ea565b50505050905090810190601f16801561082f5780820380516001836020036101000a031916815260200191505b509c5050505050505050505050505060405180910390f35b60005481565b60016020818152600092835260409283902080548451600294821615610100026000190190911693909304601f81018390048302840183019094528383529283918301828280156108df5780601f106108b4576101008083540402835291602001916108df565b820191906000526020600020905b8154815290600101906020018083116108c257829003601f168201915b505050505090806001018054600181600116156101000203166002900480601f01602080910402602001604051908101604052809291908181526020018280546001816001161561010002031660029004801561097d5780601f106109525761010080835404028352916020019161097d565b820191906000526020600020905b81548152906001019060200180831161096057829003601f168201915b505050505090806002015490806003015490806004018054600181600116156101000203166002900480601f016020809104026020016040519081016040528092919081815260200182805460018160011615610100020316600290048015610a275780601f106109fc57610100808354040283529160200191610a27565b820191906000526020600020905b815481529060010190602001808311610a0a57829003601f168201915b5050505060058301805460408051602060026001851615610100026000190190941693909304601f8101849004840282018401909252818152949594935090830182828015610ab75780601f10610a8c57610100808354040283529160200191610ab7565b820191906000526020600020905b815481529060010190602001808311610a9a57829003601f168201915b50505050600683015460078401805460408051602060026001851615610100026000190190941693909304601f81018490048402820184019092528181529596939593945090830182828015610b4e5780601f10610b2357610100808354040283529160200191610b4e565b820191906000526020600020905b815481529060010190602001808311610b3157829003601f168201915b5050505050908060080154905089565b801515610ec95760008054600190810180835560408051610120810182528d815260208082018e90528183018d9052606082018c9052608082018b905260a082018a905260c0820189905260e0820188905261010082018790529285529282529092208151805192939192610bd69284920190611288565b506020828101518051610bef9260018501920190611288565b50604082015160028201556060820151600382015560808201518051610c1f916004840191602090910190611288565b5060a08201518051610c3b916005840191602090910190611288565b5060c0820151600682015560e08201518051610c61916007840191602090910190611288565b5061010082015181600801559050507f717f89340d9c84387b2467553b214a71241f261d8377150a91e96e8a777d98c58989898989898989896040518080602001806020018a815260200189815260200180602001806020018881526020018060200187815260200186810386528f818151815260200191508051906020019080838360005b83811015610cff578181015183820152602001610ce7565b50505050905090810190601f168015610d2c5780820380516001836020036101000a031916815260200191505b5086810385528e818151815260200191508051906020019080838360005b83811015610d62578181015183820152602001610d4a565b50505050905090810190601f168015610d8f5780820380516001836020036101000a031916815260200191505b5086810384528b5181528b516020918201918d019080838360005b83811015610dc2578181015183820152602001610daa565b50505050905090810190601f168015610def5780820380516001836020036101000a031916815260200191505b5086810383528a5181528a516020918201918c019080838360005b83811015610e22578181015183820152602001610e0a565b50505050905090810190601f168015610e4f5780820380516001836020036101000a031916815260200191505b5086810382528851815288516020918201918a019080838360005b83811015610e82578181015183820152602001610e6a565b50505050905090810190601f168015610eaf5780820380516001836020036101000a031916815260200191505b509e50505050505050505050505050505060405180910390a15b505050505050505050565b6060600080828082818160015b600054811161127b57896040516020018082805190602001908083835b60208310610f1d5780518252601f199092019160209182019101610efe565b6001836020036101000a03801982511681845116808217855250505050505090500191505060405160208183030381529060405280519060200120600160008381526020019081526020016000206000016040516020018082805460018160011615610100020316600290048015610fcc5780601f10610faa576101008083540402835291820191610fcc565b820191906000526020600020905b815481529060010190602001808311610fb8575b50509150506040516020818303038152906040528051906020012014156112735760008181526001602081815260409283902060028082015460038301546006840154600885015485880180548a519981161561010002600019011695909504601f8101889004880289018801909952888852939792969195600486019560058101959294600790910193918a91908301828280156110ac5780601f10611081576101008083540402835291602001916110ac565b820191906000526020600020905b81548152906001019060200180831161108f57829003601f168201915b5050885460408051602060026001851615610100026000190190941693909304601f8101849004840282018401909252818152959d508a94509250840190508282801561113a5780601f1061110f5761010080835404028352916020019161113a565b820191906000526020600020905b81548152906001019060200180831161111d57829003601f168201915b5050875460408051602060026001851615610100026000190190941693909304601f8101849004840282018401909252818152959a50899450925084019050828280156111c85780601f1061119d576101008083540402835291602001916111c8565b820191906000526020600020905b8154815290600101906020018083116111ab57829003601f168201915b5050855460408051602060026001851615610100026000190190941693909304601f8101849004840282018401909252818152959950879450925084019050828280156112565780601f1061122b57610100808354040283529160200191611256565b820191906000526020600020905b81548152906001019060200180831161123957829003601f168201915b50505050509150985098509850985098509850985098505061127d565b600101610ee1565b505b919395975091939597565b828054600181600116156101000203166002900490600052602060002090601f016020900481019282601f106112c957805160ff19168380011785556112f6565b828001600101855582156112f6579182015b828111156112f65782518255916020019190600101906112db565b50611302929150611306565b5090565b61132091905b80821115611302576000815560010161130c565b9056fea165627a7a723058207914cd5fa06163789bf50f846c9e2034745849f2ec19138565b5aaad3954d8580029",
  "source": "pragma solidity ^0.5.0;\r\n\r\ncontract healthcare {\r\n    uint public blockCount = 0;\r\n\r\n    struct patientBlock {\r\n        string patient_id;\r\n        //uint patient_birth_year;\r\n        string patient_name;\r\n        uint patient_age;\r\n        uint patient_aadhar_number;\r\n        string patient_symptoms;\r\n       // string patient_diagonis_for;\r\n        string patient_precription;\r\n        uint uprn;\r\n        string doctor_name; \r\n        uint designation;  //0 for doctor\r\n    }\r\n    \r\n\r\n    mapping(uint=>patientBlock) public record;\r\n\r\n    constructor() public {\r\n        addPatientBlock(\"khu123\",\r\n                        //2000,\r\n                        \"khushi\", \r\n                        21,\r\n                        123456789123,\r\n                        \"fever\",\r\n                        //\"viral fever\",\r\n                        \"Crocin Cold & Flu Max\",\r\n                        123456,\r\n                        \"Dr.Ajay Patni\",\r\n                        0);\r\n        addPatientBlock(\"ish231\",\r\n                        //2001,\r\n                        \"Ishan\", \r\n                        21,\r\n                        987654321012,\r\n                        \"eyes watering\",\r\n                        //\"Conjunctivitis\",\r\n                        \"Ophthalmic eye drops\",\r\n                        654321,\r\n                        \"Dr.Sharma\",\r\n                        1);\r\n    }\r\n\r\n    //event o test new block created.\r\n    event newPatientBlockCreated (\r\n     string _patient_id,\r\n     //uint _patient_birth_year,\r\n     string _patient_name,\r\n     uint _patient_age,\r\n     uint _patient_aadhar_number,\r\n     string _patient_symptoms,\r\n   //  string _patient_diagonis_for,\r\n     string _patient_precription,\r\n     uint _uprn,\r\n     string _doctor_name,\r\n     uint _designation);\r\n    //end of event\r\n\r\n    //function to add new patient block \r\n    function addPatientBlock \r\n    (string memory _patient_id,\r\n     //uint _patient_birth_year,   \r\n     string memory _patient_name,\r\n     uint _patient_age,\r\n     uint _patient_aadhar_number,\r\n     string memory _patient_symptoms,\r\n     //string memory _patient_diagonis_for,\r\n     string memory _patient_precription,\r\n     uint _uprn,\r\n     string memory _doctor_name,\r\n     uint _designation)\r\n     public {\r\n        //here designation is 0 for doctor, so that only if doctor call record will be \r\n        //added, this can be returned from checkbox or radio from client side\r\n        if(_designation==0) {\r\n        blockCount++;\r\n\r\n        record[blockCount] = patientBlock(_patient_id,\r\n                                         // _patient_birth_year,\r\n                                         _patient_name,\r\n                                         _patient_age,\r\n                                         _patient_aadhar_number,\r\n                                         _patient_symptoms,\r\n                                       //  _patient_diagonis_for,\r\n                                         _patient_precription,\r\n                                         _uprn,\r\n                                         _doctor_name,\r\n                                         _designation);\r\n        //for test event is created.\r\n            emit newPatientBlockCreated(_patient_id,\r\n                                       // _patient_birth_year,\r\n                                        _patient_name,\r\n                                         _patient_age,\r\n                                         _patient_aadhar_number,\r\n                                         _patient_symptoms,\r\n                                       //  _patient_diagonis_for,\r\n                                         _patient_precription,\r\n                                         _uprn,\r\n                                         _doctor_name,\r\n                                         _designation);\r\n                            }\r\n    }\r\n\r\n    //event to test getPatientDetailByDoctor function\r\n    event getPatientDetailByDoctorAgentEvent(\r\n     string _patient_id);\r\n\r\n    //function to fetch patient detail\r\n    //before calling this function check if designation == 0\r\n    function getPatientDetailByDoctorAgent\r\n    ( string memory _patient_id) \r\n    view public returns(\r\n        string memory,\r\n        uint,\r\n        uint,\r\n        string memory,\r\n        //string memory,\r\n        string memory,\r\n        uint,\r\n        string memory,\r\n        uint){\r\n        //check valid uprn , uprn must be six digit number\r\n        for(uint i=1; i<=blockCount; i++)\r\n            {\r\n                if (keccak256(abi.encodePacked(record[i].patient_id)) == keccak256(abi.encodePacked(_patient_id))){\r\n                    return(record[i].patient_name,\r\n                            record[i].patient_age,\r\n                            record[i].patient_aadhar_number,\r\n                            record[i].patient_symptoms,\r\n                           // record[i].patient_diagonis_for,\r\n                            record[i].patient_precription,\r\n                            record[i].uprn,\r\n                            record[i].doctor_name,\r\n                            record[i].designation);\r\n                }\r\n                //emit getPatientDetailByDoctorEventAgent(_patient_aadhar_number,\r\n                  //                                 _uprn);\r\n                }\r\n            }\r\n}\r\n    ",
  "sourcePath": "C:/Users/global 9584767352/healthcare/contracts/healthcare.sol",
  "compiler": {
    "name": "solc",
    "version": "0.5.0+commit.1d4f565a.Emscripten.clang"
  },
  "schemaVersion": "3.0.1",
  "updatedAt": "2021-05-05T18:13:35.632Z",
  "devdoc": {
    "methods": {}
  },
  "userdoc": {
    "methods": {}
  }
}